{
  "_format": "hh-sol-artifact-1",
  "contractName": "Tone",
  "sourceName": "contracts/Tone.sol",
  "abi": [
    {
      "inputs": [
        {
          "internalType": "uint256",
          "name": "max_supply",
          "type": "uint256"
        },
        {
          "internalType": "string",
          "name": "base_token_URI",
          "type": "string"
        }
      ],
      "stateMutability": "nonpayable",
      "type": "constructor"
    },
    {
      "inputs": [],
      "name": "ApprovalCallerNotOwnerNorApproved",
      "type": "error"
    },
    {
      "inputs": [],
      "name": "ApprovalQueryForNonexistentToken",
      "type": "error"
    },
    {
      "inputs": [],
      "name": "BalanceQueryForZeroAddress",
      "type": "error"
    },
    {
      "inputs": [],
      "name": "MintERC2309QuantityExceedsLimit",
      "type": "error"
    },
    {
      "inputs": [],
      "name": "MintToZeroAddress",
      "type": "error"
    },
    {
      "inputs": [],
      "name": "MintZeroQuantity",
      "type": "error"
    },
    {
      "inputs": [],
      "name": "OwnerQueryForNonexistentToken",
      "type": "error"
    },
    {
      "inputs": [],
      "name": "OwnershipNotInitializedForExtraData",
      "type": "error"
    },
    {
      "inputs": [],
      "name": "TransferCallerNotOwnerNorApproved",
      "type": "error"
    },
    {
      "inputs": [],
      "name": "TransferFromIncorrectOwner",
      "type": "error"
    },
    {
      "inputs": [],
      "name": "TransferToNonERC721ReceiverImplementer",
      "type": "error"
    },
    {
      "inputs": [],
      "name": "TransferToZeroAddress",
      "type": "error"
    },
    {
      "inputs": [],
      "name": "URIQueryForNonexistentToken",
      "type": "error"
    },
    {
      "anonymous": false,
      "inputs": [
        {
          "indexed": true,
          "internalType": "address",
          "name": "owner",
          "type": "address"
        },
        {
          "indexed": true,
          "internalType": "address",
          "name": "approved",
          "type": "address"
        },
        {
          "indexed": true,
          "internalType": "uint256",
          "name": "tokenId",
          "type": "uint256"
        }
      ],
      "name": "Approval",
      "type": "event"
    },
    {
      "anonymous": false,
      "inputs": [
        {
          "indexed": true,
          "internalType": "address",
          "name": "owner",
          "type": "address"
        },
        {
          "indexed": true,
          "internalType": "address",
          "name": "operator",
          "type": "address"
        },
        {
          "indexed": false,
          "internalType": "bool",
          "name": "approved",
          "type": "bool"
        }
      ],
      "name": "ApprovalForAll",
      "type": "event"
    },
    {
      "anonymous": false,
      "inputs": [
        {
          "indexed": true,
          "internalType": "uint256",
          "name": "fromTokenId",
          "type": "uint256"
        },
        {
          "indexed": false,
          "internalType": "uint256",
          "name": "toTokenId",
          "type": "uint256"
        },
        {
          "indexed": true,
          "internalType": "address",
          "name": "from",
          "type": "address"
        },
        {
          "indexed": true,
          "internalType": "address",
          "name": "to",
          "type": "address"
        }
      ],
      "name": "ConsecutiveTransfer",
      "type": "event"
    },
    {
      "anonymous": false,
      "inputs": [
        {
          "indexed": true,
          "internalType": "address",
          "name": "previousOwner",
          "type": "address"
        },
        {
          "indexed": true,
          "internalType": "address",
          "name": "newOwner",
          "type": "address"
        }
      ],
      "name": "OwnershipTransferred",
      "type": "event"
    },
    {
      "anonymous": false,
      "inputs": [
        {
          "indexed": true,
          "internalType": "address",
          "name": "from",
          "type": "address"
        },
        {
          "indexed": true,
          "internalType": "address",
          "name": "to",
          "type": "address"
        },
        {
          "indexed": true,
          "internalType": "uint256",
          "name": "tokenId",
          "type": "uint256"
        }
      ],
      "name": "Transfer",
      "type": "event"
    },
    {
      "inputs": [
        {
          "internalType": "address",
          "name": "to",
          "type": "address"
        },
        {
          "internalType": "uint256",
          "name": "tokenId",
          "type": "uint256"
        }
      ],
      "name": "approve",
      "outputs": [],
      "stateMutability": "payable",
      "type": "function"
    },
    {
      "inputs": [
        {
          "internalType": "address",
          "name": "owner",
          "type": "address"
        }
      ],
      "name": "balanceOf",
      "outputs": [
        {
          "internalType": "uint256",
          "name": "",
          "type": "uint256"
        }
      ],
      "stateMutability": "view",
      "type": "function"
    },
    {
      "inputs": [
        {
          "internalType": "uint256",
          "name": "tokenId",
          "type": "uint256"
        }
      ],
      "name": "getApproved",
      "outputs": [
        {
          "internalType": "address",
          "name": "",
          "type": "address"
        }
      ],
      "stateMutability": "view",
      "type": "function"
    },
    {
      "inputs": [],
      "name": "getMaxSupply",
      "outputs": [
        {
          "internalType": "uint256",
          "name": "",
          "type": "uint256"
        }
      ],
      "stateMutability": "view",
      "type": "function"
    },
    {
      "inputs": [
        {
          "internalType": "address",
          "name": "owner",
          "type": "address"
        }
      ],
      "name": "getOwnerTokens",
      "outputs": [
        {
          "internalType": "uint256[]",
          "name": "",
          "type": "uint256[]"
        }
      ],
      "stateMutability": "view",
      "type": "function"
    },
    {
      "inputs": [
        {
          "internalType": "address",
          "name": "owner",
          "type": "address"
        },
        {
          "internalType": "address",
          "name": "operator",
          "type": "address"
        }
      ],
      "name": "isApprovedForAll",
      "outputs": [
        {
          "internalType": "bool",
          "name": "",
          "type": "bool"
        }
      ],
      "stateMutability": "view",
      "type": "function"
    },
    {
      "inputs": [],
      "name": "maxSupply",
      "outputs": [
        {
          "internalType": "uint256",
          "name": "",
          "type": "uint256"
        }
      ],
      "stateMutability": "view",
      "type": "function"
    },
    {
      "inputs": [
        {
          "internalType": "uint256",
          "name": "quantity",
          "type": "uint256"
        }
      ],
      "name": "mint",
      "outputs": [],
      "stateMutability": "payable",
      "type": "function"
    },
    {
      "inputs": [],
      "name": "name",
      "outputs": [
        {
          "internalType": "string",
          "name": "",
          "type": "string"
        }
      ],
      "stateMutability": "view",
      "type": "function"
    },
    {
      "inputs": [],
      "name": "owner",
      "outputs": [
        {
          "internalType": "address",
          "name": "",
          "type": "address"
        }
      ],
      "stateMutability": "view",
      "type": "function"
    },
    {
      "inputs": [
        {
          "internalType": "uint256",
          "name": "tokenId",
          "type": "uint256"
        }
      ],
      "name": "ownerOf",
      "outputs": [
        {
          "internalType": "address",
          "name": "",
          "type": "address"
        }
      ],
      "stateMutability": "view",
      "type": "function"
    },
    {
      "inputs": [],
      "name": "renounceOwnership",
      "outputs": [],
      "stateMutability": "nonpayable",
      "type": "function"
    },
    {
      "inputs": [
        {
          "internalType": "address",
          "name": "from",
          "type": "address"
        },
        {
          "internalType": "address",
          "name": "to",
          "type": "address"
        },
        {
          "internalType": "uint256",
          "name": "tokenId",
          "type": "uint256"
        }
      ],
      "name": "safeTransferFrom",
      "outputs": [],
      "stateMutability": "payable",
      "type": "function"
    },
    {
      "inputs": [
        {
          "internalType": "address",
          "name": "from",
          "type": "address"
        },
        {
          "internalType": "address",
          "name": "to",
          "type": "address"
        },
        {
          "internalType": "uint256",
          "name": "tokenId",
          "type": "uint256"
        },
        {
          "internalType": "bytes",
          "name": "_data",
          "type": "bytes"
        }
      ],
      "name": "safeTransferFrom",
      "outputs": [],
      "stateMutability": "payable",
      "type": "function"
    },
    {
      "inputs": [
        {
          "internalType": "address",
          "name": "operator",
          "type": "address"
        },
        {
          "internalType": "bool",
          "name": "approved",
          "type": "bool"
        }
      ],
      "name": "setApprovalForAll",
      "outputs": [],
      "stateMutability": "nonpayable",
      "type": "function"
    },
    {
      "inputs": [
        {
          "internalType": "string",
          "name": "baseURI",
          "type": "string"
        }
      ],
      "name": "setBaseURI",
      "outputs": [],
      "stateMutability": "nonpayable",
      "type": "function"
    },
    {
      "inputs": [
        {
          "internalType": "uint256",
          "name": "supply",
          "type": "uint256"
        }
      ],
      "name": "setMaxSupply",
      "outputs": [],
      "stateMutability": "nonpayable",
      "type": "function"
    },
    {
      "inputs": [
        {
          "internalType": "uint256",
          "name": "price",
          "type": "uint256"
        }
      ],
      "name": "setTokenPrice",
      "outputs": [],
      "stateMutability": "nonpayable",
      "type": "function"
    },
    {
      "inputs": [
        {
          "internalType": "address payable",
          "name": "wallet",
          "type": "address"
        }
      ],
      "name": "setWithdrawWalletAddress",
      "outputs": [],
      "stateMutability": "nonpayable",
      "type": "function"
    },
    {
      "inputs": [
        {
          "internalType": "bytes4",
          "name": "interfaceId",
          "type": "bytes4"
        }
      ],
      "name": "supportsInterface",
      "outputs": [
        {
          "internalType": "bool",
          "name": "",
          "type": "bool"
        }
      ],
      "stateMutability": "view",
      "type": "function"
    },
    {
      "inputs": [],
      "name": "symbol",
      "outputs": [
        {
          "internalType": "string",
          "name": "",
          "type": "string"
        }
      ],
      "stateMutability": "view",
      "type": "function"
    },
    {
      "inputs": [],
      "name": "tokenPrice",
      "outputs": [
        {
          "internalType": "uint256",
          "name": "",
          "type": "uint256"
        }
      ],
      "stateMutability": "view",
      "type": "function"
    },
    {
      "inputs": [
        {
          "internalType": "uint256",
          "name": "tokenId",
          "type": "uint256"
        }
      ],
      "name": "tokenURI",
      "outputs": [
        {
          "internalType": "string",
          "name": "",
          "type": "string"
        }
      ],
      "stateMutability": "view",
      "type": "function"
    },
    {
      "inputs": [],
      "name": "totalSupply",
      "outputs": [
        {
          "internalType": "uint256",
          "name": "",
          "type": "uint256"
        }
      ],
      "stateMutability": "view",
      "type": "function"
    },
    {
      "inputs": [
        {
          "internalType": "address",
          "name": "from",
          "type": "address"
        },
        {
          "internalType": "address",
          "name": "to",
          "type": "address"
        },
        {
          "internalType": "uint256",
          "name": "tokenId",
          "type": "uint256"
        }
      ],
      "name": "transferFrom",
      "outputs": [],
      "stateMutability": "payable",
      "type": "function"
    },
    {
      "inputs": [
        {
          "internalType": "address",
          "name": "newOwner",
          "type": "address"
        }
      ],
      "name": "transferOwnership",
      "outputs": [],
      "stateMutability": "nonpayable",
      "type": "function"
    },
    {
      "inputs": [],
      "name": "withdraw",
      "outputs": [],
      "stateMutability": "nonpayable",
      "type": "function"
    },
    {
      "inputs": [],
      "name": "withdrawWalletAddress",
      "outputs": [
        {
          "internalType": "address payable",
          "name": "",
          "type": "address"
        }
      ],
      "stateMutability": "view",
      "type": "function"
    }
  ],
  "bytecode": "0x6080604052633b9aca00600a553480156200001957600080fd5b50604051620030643803806200306483398181016040528101906200003f919062000498565b6040518060400160405280600481526020017f546f6e65000000000000000000000000000000000000000000000000000000008152506040518060400160405280600481526020017f544f4e45000000000000000000000000000000000000000000000000000000008152508160029080519060200190620000c392919062000210565b508060039080519060200190620000dc92919062000210565b50620000ed6200013d60201b60201c565b600081905550505062000115620001096200014260201b60201c565b6200014a60201b60201c565b8160098190555080600b90805190602001906200013492919062000210565b50505062000563565b600090565b600033905090565b6000600860009054906101000a900473ffffffffffffffffffffffffffffffffffffffff16905081600860006101000a81548173ffffffffffffffffffffffffffffffffffffffff021916908373ffffffffffffffffffffffffffffffffffffffff1602179055508173ffffffffffffffffffffffffffffffffffffffff168173ffffffffffffffffffffffffffffffffffffffff167f8be0079c531659141344cd1fd0a4f28419497f9722a3daafe3b4186f6b6457e060405160405180910390a35050565b8280546200021e906200052d565b90600052602060002090601f0160209004810192826200024257600085556200028e565b82601f106200025d57805160ff19168380011785556200028e565b828001600101855582156200028e579182015b828111156200028d57825182559160200191906001019062000270565b5b5090506200029d9190620002a1565b5090565b5b80821115620002bc576000816000905550600101620002a2565b5090565b6000604051905090565b600080fd5b600080fd5b6000819050919050565b620002e981620002d4565b8114620002f557600080fd5b50565b6000815190506200030981620002de565b92915050565b600080fd5b600080fd5b6000601f19601f8301169050919050565b7f4e487b7100000000000000000000000000000000000000000000000000000000600052604160045260246000fd5b620003648262000319565b810181811067ffffffffffffffff821117156200038657620003856200032a565b5b80604052505050565b60006200039b620002c0565b9050620003a9828262000359565b919050565b600067ffffffffffffffff821115620003cc57620003cb6200032a565b5b620003d78262000319565b9050602081019050919050565b60005b8381101562000404578082015181840152602081019050620003e7565b8381111562000414576000848401525b50505050565b6000620004316200042b84620003ae565b6200038f565b90508281526020810184848401111562000450576200044f62000314565b5b6200045d848285620003e4565b509392505050565b600082601f8301126200047d576200047c6200030f565b5b81516200048f8482602086016200041a565b91505092915050565b60008060408385031215620004b257620004b1620002ca565b5b6000620004c285828601620002f8565b925050602083015167ffffffffffffffff811115620004e657620004e5620002cf565b5b620004f48582860162000465565b9150509250929050565b7f4e487b7100000000000000000000000000000000000000000000000000000000600052602260045260246000fd5b600060028204905060018216806200054657607f821691505b602082108114156200055d576200055c620004fe565b5b50919050565b612af180620005736000396000f3fe6080604052600436106101b75760003560e01c806370a08231116100ec578063b14ec1011161008a578063d5abeb0111610064578063d5abeb01146105a1578063d63d4af0146105cc578063e985e9c514610609578063f2fde38b14610646576101b7565b8063b14ec1011461051d578063b88d4fde14610548578063c87b56dd14610564576101b7565b80638da5cb5b116100c65780638da5cb5b1461048257806395d89b41146104ad578063a0712d68146104d8578063a22cb465146104f4576101b7565b806370a0823114610403578063715018a6146104405780637ff9b59614610457576101b7565b80633ccfd60b1161015957806355f804b31161013357806355f804b31461034b5780636352211e146103745780636a61e5fc146103b15780636f8b44b0146103da576101b7565b80633ccfd60b146102ed57806342842e0e146103045780634c0f38c214610320576101b7565b8063095ea7b311610195578063095ea7b31461026157806318160ddd1461027d578063212f6039146102a857806323b872dd146102d1576101b7565b806301ffc9a7146101bc57806306fdde03146101f9578063081812fc14610224575b600080fd5b3480156101c857600080fd5b506101e360048036038101906101de9190611cbf565b61066f565b6040516101f09190611d07565b60405180910390f35b34801561020557600080fd5b5061020e610701565b60405161021b9190611dbb565b60405180910390f35b34801561023057600080fd5b5061024b60048036038101906102469190611e13565b610793565b6040516102589190611e81565b60405180910390f35b61027b60048036038101906102769190611ec8565b610812565b005b34801561028957600080fd5b50610292610956565b60405161029f9190611f17565b60405180910390f35b3480156102b457600080fd5b506102cf60048036038101906102ca9190611f70565b61096d565b005b6102eb60048036038101906102e69190611f9d565b6109b9565b005b3480156102f957600080fd5b50610302610cde565b005b61031e60048036038101906103199190611f9d565b610db7565b005b34801561032c57600080fd5b50610335610dd7565b6040516103429190611f17565b60405180910390f35b34801561035757600080fd5b50610372600480360381019061036d9190612055565b610de1565b005b34801561038057600080fd5b5061039b60048036038101906103969190611e13565b610dff565b6040516103a89190611e81565b60405180910390f35b3480156103bd57600080fd5b506103d860048036038101906103d39190611e13565b610e11565b005b3480156103e657600080fd5b5061040160048036038101906103fc9190611e13565b610e23565b005b34801561040f57600080fd5b5061042a600480360381019061042591906120a2565b610e35565b6040516104379190611f17565b60405180910390f35b34801561044c57600080fd5b50610455610eee565b005b34801561046357600080fd5b5061046c610f02565b6040516104799190611f17565b60405180910390f35b34801561048e57600080fd5b50610497610f08565b6040516104a49190611e81565b60405180910390f35b3480156104b957600080fd5b506104c2610f32565b6040516104cf9190611dbb565b60405180910390f35b6104f260048036038101906104ed9190611e13565b610fc4565b005b34801561050057600080fd5b5061051b600480360381019061051691906120fb565b611078565b005b34801561052957600080fd5b50610532611183565b60405161053f919061214a565b60405180910390f35b610562600480360381019061055d9190612295565b6111a9565b005b34801561057057600080fd5b5061058b60048036038101906105869190611e13565b61121c565b6040516105989190611dbb565b60405180910390f35b3480156105ad57600080fd5b506105b6611298565b6040516105c39190611f17565b60405180910390f35b3480156105d857600080fd5b506105f360048036038101906105ee91906120a2565b61129e565b60405161060091906123d6565b60405180910390f35b34801561061557600080fd5b50610630600480360381019061062b91906123f8565b6113a6565b60405161063d9190611d07565b60405180910390f35b34801561065257600080fd5b5061066d600480360381019061066891906120a2565b61143a565b005b60006301ffc9a760e01b827bffffffffffffffffffffffffffffffffffffffffffffffffffffffff191614806106ca57506380ac58cd60e01b827bffffffffffffffffffffffffffffffffffffffffffffffffffffffff1916145b806106fa5750635b5e139f60e01b827bffffffffffffffffffffffffffffffffffffffffffffffffffffffff1916145b9050919050565b60606002805461071090612467565b80601f016020809104026020016040519081016040528092919081815260200182805461073c90612467565b80156107895780601f1061075e57610100808354040283529160200191610789565b820191906000526020600020905b81548152906001019060200180831161076c57829003601f168201915b5050505050905090565b600061079e826114be565b6107d4576040517fcf4700e400000000000000000000000000000000000000000000000000000000815260040160405180910390fd5b6006600083815260200190815260200160002060000160009054906101000a900473ffffffffffffffffffffffffffffffffffffffff169050919050565b600061081d82610dff565b90508073ffffffffffffffffffffffffffffffffffffffff1661083e61151d565b73ffffffffffffffffffffffffffffffffffffffff16146108a15761086a8161086561151d565b6113a6565b6108a0576040517fcfb3b94200000000000000000000000000000000000000000000000000000000815260040160405180910390fd5b5b826006600084815260200190815260200160002060000160006101000a81548173ffffffffffffffffffffffffffffffffffffffff021916908373ffffffffffffffffffffffffffffffffffffffff160217905550818373ffffffffffffffffffffffffffffffffffffffff168273ffffffffffffffffffffffffffffffffffffffff167f8c5be1e5ebec7d5bd14f71427d1e84f3dd0314c0f7b2291e5b200ac8c7c3b92560405160405180910390a4505050565b6000610960611525565b6001546000540303905090565b61097561152a565b80600c60006101000a81548173ffffffffffffffffffffffffffffffffffffffff021916908373ffffffffffffffffffffffffffffffffffffffff16021790555050565b60006109c4826115a8565b90508373ffffffffffffffffffffffffffffffffffffffff168173ffffffffffffffffffffffffffffffffffffffff1614610a2b576040517fa114810000000000000000000000000000000000000000000000000000000000815260040160405180910390fd5b600080610a3784611676565b91509150610a4d8187610a4861151d565b61169d565b610a9957610a6286610a5d61151d565b6113a6565b610a98576040517f59c896be00000000000000000000000000000000000000000000000000000000815260040160405180910390fd5b5b600073ffffffffffffffffffffffffffffffffffffffff168573ffffffffffffffffffffffffffffffffffffffff161415610b00576040517fea553b3400000000000000000000000000000000000000000000000000000000815260040160405180910390fd5b610b0d86868660016116e1565b8015610b1857600082555b600560008773ffffffffffffffffffffffffffffffffffffffff1673ffffffffffffffffffffffffffffffffffffffff168152602001908152602001600020600081546001900391905081905550600560008673ffffffffffffffffffffffffffffffffffffffff1673ffffffffffffffffffffffffffffffffffffffff1681526020019081526020016000206000815460010191905081905550610be685610bc28888876116e7565b7c02000000000000000000000000000000000000000000000000000000001761170f565b600460008681526020019081526020016000208190555060007c020000000000000000000000000000000000000000000000000000000084161415610c6e576000600185019050600060046000838152602001908152602001600020541415610c6c576000548114610c6b578360046000838152602001908152602001600020819055505b5b505b838573ffffffffffffffffffffffffffffffffffffffff168773ffffffffffffffffffffffffffffffffffffffff167fddf252ad1be2c89b69c2b068fc378daa952ba7f163c4a11628f55a4df523b3ef60405160405180910390a4610cd6868686600161173a565b505050505050565b610ce661152a565b6000600c60009054906101000a900473ffffffffffffffffffffffffffffffffffffffff1673ffffffffffffffffffffffffffffffffffffffff1647604051610d2e906124ca565b60006040518083038185875af1925050503d8060008114610d6b576040519150601f19603f3d011682016040523d82523d6000602084013e610d70565b606091505b5050905080610db4576040517f08c379a0000000000000000000000000000000000000000000000000000000008152600401610dab9061252b565b60405180910390fd5b50565b610dd2838383604051806020016040528060008152506111a9565b505050565b6000600954905090565b610de961152a565b8181600b9190610dfa929190611bb0565b505050565b6000610e0a826115a8565b9050919050565b610e1961152a565b80600a8190555050565b610e2b61152a565b8060098190555050565b60008073ffffffffffffffffffffffffffffffffffffffff168273ffffffffffffffffffffffffffffffffffffffff161415610e9d576040517f8f4eb60400000000000000000000000000000000000000000000000000000000815260040160405180910390fd5b67ffffffffffffffff600560008473ffffffffffffffffffffffffffffffffffffffff1673ffffffffffffffffffffffffffffffffffffffff16815260200190815260200160002054169050919050565b610ef661152a565b610f006000611740565b565b600a5481565b6000600860009054906101000a900473ffffffffffffffffffffffffffffffffffffffff16905090565b606060038054610f4190612467565b80601f0160208091040260200160405190810160405280929190818152602001828054610f6d90612467565b8015610fba5780601f10610f8f57610100808354040283529160200191610fba565b820191906000526020600020905b815481529060010190602001808311610f9d57829003601f168201915b5050505050905090565b60095481610fd0611806565b610fda919061257a565b111561101b576040517f08c379a00000000000000000000000000000000000000000000000000000000081526004016110129061261c565b60405180910390fd5b600a5481611029919061263c565b34101561106b576040517f08c379a0000000000000000000000000000000000000000000000000000000008152600401611062906126e2565b60405180910390fd5b6110753382611819565b50565b806007600061108561151d565b73ffffffffffffffffffffffffffffffffffffffff1673ffffffffffffffffffffffffffffffffffffffff16815260200190815260200160002060008473ffffffffffffffffffffffffffffffffffffffff1673ffffffffffffffffffffffffffffffffffffffff16815260200190815260200160002060006101000a81548160ff0219169083151502179055508173ffffffffffffffffffffffffffffffffffffffff1661113261151d565b73ffffffffffffffffffffffffffffffffffffffff167f17307eab39ab6107e8899845ad3d59bd9653f200f220920489ca2b5937696c31836040516111779190611d07565b60405180910390a35050565b600c60009054906101000a900473ffffffffffffffffffffffffffffffffffffffff1681565b6111b48484846109b9565b60008373ffffffffffffffffffffffffffffffffffffffff163b14611216576111df848484846119d6565b611215576040517fd1a57ed600000000000000000000000000000000000000000000000000000000815260040160405180910390fd5b5b50505050565b6060611227826114be565b611266576040517f08c379a000000000000000000000000000000000000000000000000000000000815260040161125d9061274e565b60405180910390fd5b600b61127183611b36565b60405160200161128292919061283e565b6040516020818303038152906040529050919050565b60095481565b606060006112ab83610e35565b67ffffffffffffffff8111156112c4576112c361216a565b5b6040519080825280602002602001820160405280156112f25781602001602082028036833780820191505090505b5090506000805b611301611806565b81101561139b578473ffffffffffffffffffffffffffffffffffffffff1661132882610dff565b73ffffffffffffffffffffffffffffffffffffffff161415611388578083838151811061135857611357612862565b5b602002602001018181525050818061136f90612891565b92505061137b85610e35565b8214156113875761139b565b5b808061139390612891565b9150506112f9565b508192505050919050565b6000600760008473ffffffffffffffffffffffffffffffffffffffff1673ffffffffffffffffffffffffffffffffffffffff16815260200190815260200160002060008373ffffffffffffffffffffffffffffffffffffffff1673ffffffffffffffffffffffffffffffffffffffff16815260200190815260200160002060009054906101000a900460ff16905092915050565b61144261152a565b600073ffffffffffffffffffffffffffffffffffffffff168173ffffffffffffffffffffffffffffffffffffffff1614156114b2576040517f08c379a00000000000000000000000000000000000000000000000000000000081526004016114a99061294c565b60405180910390fd5b6114bb81611740565b50565b6000816114c9611525565b111580156114d8575060005482105b8015611516575060007c0100000000000000000000000000000000000000000000000000000000600460008581526020019081526020016000205416145b9050919050565b600033905090565b600090565b611532611b8f565b73ffffffffffffffffffffffffffffffffffffffff16611550610f08565b73ffffffffffffffffffffffffffffffffffffffff16146115a6576040517f08c379a000000000000000000000000000000000000000000000000000000000815260040161159d906129b8565b60405180910390fd5b565b600080829050806115b7611525565b1161163f5760005481101561163e5760006004600083815260200190815260200160002054905060007c01000000000000000000000000000000000000000000000000000000008216141561163c575b6000811415611632576004600083600190039350838152602001908152602001600020549050611607565b8092505050611671565b505b5b6040517fdf2d9b4200000000000000000000000000000000000000000000000000000000815260040160405180910390fd5b919050565b60008060006006600085815260200190815260200160002090508092508254915050915091565b600073ffffffffffffffffffffffffffffffffffffffff8316925073ffffffffffffffffffffffffffffffffffffffff821691508382148383141790509392505050565b50505050565b60008060e883901c905060e86116fe868684611b97565b62ffffff16901b9150509392505050565b600073ffffffffffffffffffffffffffffffffffffffff83169250814260a01b178317905092915050565b50505050565b6000600860009054906101000a900473ffffffffffffffffffffffffffffffffffffffff16905081600860006101000a81548173ffffffffffffffffffffffffffffffffffffffff021916908373ffffffffffffffffffffffffffffffffffffffff1602179055508173ffffffffffffffffffffffffffffffffffffffff168173ffffffffffffffffffffffffffffffffffffffff167f8be0079c531659141344cd1fd0a4f28419497f9722a3daafe3b4186f6b6457e060405160405180910390a35050565b6000611810611525565b60005403905090565b600080549050600082141561185a576040517fb562e8dd00000000000000000000000000000000000000000000000000000000815260040160405180910390fd5b61186760008483856116e1565b600160406001901b178202600560008573ffffffffffffffffffffffffffffffffffffffff1673ffffffffffffffffffffffffffffffffffffffff168152602001908152602001600020600082825401925050819055506118de836118cf60008660006116e7565b6118d885611ba0565b1761170f565b6004600083815260200190815260200160002081905550600080838301905073ffffffffffffffffffffffffffffffffffffffff85169150828260007fddf252ad1be2c89b69c2b068fc378daa952ba7f163c4a11628f55a4df523b3ef600080a4600183015b81811461197f57808360007fddf252ad1be2c89b69c2b068fc378daa952ba7f163c4a11628f55a4df523b3ef600080a4600181019050611944565b5060008214156119bb576040517f2e07630000000000000000000000000000000000000000000000000000000000815260040160405180910390fd5b8060008190555050506119d1600084838561173a565b505050565b60008373ffffffffffffffffffffffffffffffffffffffff1663150b7a026119fc61151d565b8786866040518563ffffffff1660e01b8152600401611a1e9493929190612a2d565b602060405180830381600087803b158015611a3857600080fd5b505af1925050508015611a6957506040513d601f19601f82011682018060405250810190611a669190612a8e565b60015b611ae3573d8060008114611a99576040519150601f19603f3d011682016040523d82523d6000602084013e611a9e565b606091505b50600081511415611adb576040517fd1a57ed600000000000000000000000000000000000000000000000000000000815260040160405180910390fd5b805181602001fd5b63150b7a0260e01b7bffffffffffffffffffffffffffffffffffffffffffffffffffffffff1916817bffffffffffffffffffffffffffffffffffffffffffffffffffffffff191614915050949350505050565b606060a060405101806040526020810391506000825281835b600115611b7a57600184039350600a81066030018453600a8104905080611b7557611b7a565b611b4f565b50828103602084039350808452505050919050565b600033905090565b60009392505050565b60006001821460e11b9050919050565b828054611bbc90612467565b90600052602060002090601f016020900481019282611bde5760008555611c25565b82601f10611bf757803560ff1916838001178555611c25565b82800160010185558215611c25579182015b82811115611c24578235825591602001919060010190611c09565b5b509050611c329190611c36565b5090565b5b80821115611c4f576000816000905550600101611c37565b5090565b6000604051905090565b600080fd5b600080fd5b60007fffffffff0000000000000000000000000000000000000000000000000000000082169050919050565b611c9c81611c67565b8114611ca757600080fd5b50565b600081359050611cb981611c93565b92915050565b600060208284031215611cd557611cd4611c5d565b5b6000611ce384828501611caa565b91505092915050565b60008115159050919050565b611d0181611cec565b82525050565b6000602082019050611d1c6000830184611cf8565b92915050565b600081519050919050565b600082825260208201905092915050565b60005b83811015611d5c578082015181840152602081019050611d41565b83811115611d6b576000848401525b50505050565b6000601f19601f8301169050919050565b6000611d8d82611d22565b611d978185611d2d565b9350611da7818560208601611d3e565b611db081611d71565b840191505092915050565b60006020820190508181036000830152611dd58184611d82565b905092915050565b6000819050919050565b611df081611ddd565b8114611dfb57600080fd5b50565b600081359050611e0d81611de7565b92915050565b600060208284031215611e2957611e28611c5d565b5b6000611e3784828501611dfe565b91505092915050565b600073ffffffffffffffffffffffffffffffffffffffff82169050919050565b6000611e6b82611e40565b9050919050565b611e7b81611e60565b82525050565b6000602082019050611e966000830184611e72565b92915050565b611ea581611e60565b8114611eb057600080fd5b50565b600081359050611ec281611e9c565b92915050565b60008060408385031215611edf57611ede611c5d565b5b6000611eed85828601611eb3565b9250506020611efe85828601611dfe565b9150509250929050565b611f1181611ddd565b82525050565b6000602082019050611f2c6000830184611f08565b92915050565b6000611f3d82611e40565b9050919050565b611f4d81611f32565b8114611f5857600080fd5b50565b600081359050611f6a81611f44565b92915050565b600060208284031215611f8657611f85611c5d565b5b6000611f9484828501611f5b565b91505092915050565b600080600060608486031215611fb657611fb5611c5d565b5b6000611fc486828701611eb3565b9350506020611fd586828701611eb3565b9250506040611fe686828701611dfe565b9150509250925092565b600080fd5b600080fd5b600080fd5b60008083601f84011261201557612014611ff0565b5b8235905067ffffffffffffffff81111561203257612031611ff5565b5b60208301915083600182028301111561204e5761204d611ffa565b5b9250929050565b6000806020838503121561206c5761206b611c5d565b5b600083013567ffffffffffffffff81111561208a57612089611c62565b5b61209685828601611fff565b92509250509250929050565b6000602082840312156120b8576120b7611c5d565b5b60006120c684828501611eb3565b91505092915050565b6120d881611cec565b81146120e357600080fd5b50565b6000813590506120f5816120cf565b92915050565b6000806040838503121561211257612111611c5d565b5b600061212085828601611eb3565b9250506020612131858286016120e6565b9150509250929050565b61214481611f32565b82525050565b600060208201905061215f600083018461213b565b92915050565b600080fd5b7f4e487b7100000000000000000000000000000000000000000000000000000000600052604160045260246000fd5b6121a282611d71565b810181811067ffffffffffffffff821117156121c1576121c061216a565b5b80604052505050565b60006121d4611c53565b90506121e08282612199565b919050565b600067ffffffffffffffff821115612200576121ff61216a565b5b61220982611d71565b9050602081019050919050565b82818337600083830152505050565b6000612238612233846121e5565b6121ca565b90508281526020810184848401111561225457612253612165565b5b61225f848285612216565b509392505050565b600082601f83011261227c5761227b611ff0565b5b813561228c848260208601612225565b91505092915050565b600080600080608085870312156122af576122ae611c5d565b5b60006122bd87828801611eb3565b94505060206122ce87828801611eb3565b93505060406122df87828801611dfe565b925050606085013567ffffffffffffffff811115612300576122ff611c62565b5b61230c87828801612267565b91505092959194509250565b600081519050919050565b600082825260208201905092915050565b6000819050602082019050919050565b61234d81611ddd565b82525050565b600061235f8383612344565b60208301905092915050565b6000602082019050919050565b600061238382612318565b61238d8185612323565b935061239883612334565b8060005b838110156123c95781516123b08882612353565b97506123bb8361236b565b92505060018101905061239c565b5085935050505092915050565b600060208201905081810360008301526123f08184612378565b905092915050565b6000806040838503121561240f5761240e611c5d565b5b600061241d85828601611eb3565b925050602061242e85828601611eb3565b9150509250929050565b7f4e487b7100000000000000000000000000000000000000000000000000000000600052602260045260246000fd5b6000600282049050600182168061247f57607f821691505b6020821081141561249357612492612438565b5b50919050565b600081905092915050565b50565b60006124b4600083612499565b91506124bf826124a4565b600082019050919050565b60006124d5826124a7565b9150819050919050565b7f7769746864726177206661696c65640000000000000000000000000000000000600082015250565b6000612515600f83611d2d565b9150612520826124df565b602082019050919050565b6000602082019050818103600083015261254481612508565b9050919050565b7f4e487b7100000000000000000000000000000000000000000000000000000000600052601160045260246000fd5b600061258582611ddd565b915061259083611ddd565b9250827fffffffffffffffffffffffffffffffffffffffffffffffffffffffffffffffff038211156125c5576125c461254b565b5b828201905092915050565b7f4e6f7420656e6f75676820737570706c79206c65667400000000000000000000600082015250565b6000612606601683611d2d565b9150612611826125d0565b602082019050919050565b60006020820190508181036000830152612635816125f9565b9050919050565b600061264782611ddd565b915061265283611ddd565b9250817fffffffffffffffffffffffffffffffffffffffffffffffffffffffffffffffff048311821515161561268b5761268a61254b565b5b828202905092915050565b7f496e737566666963656e742046756e6473000000000000000000000000000000600082015250565b60006126cc601183611d2d565b91506126d782612696565b602082019050919050565b600060208201905081810360008301526126fb816126bf565b9050919050565b7f546f6b656e20646f6573206e6f74206578697374000000000000000000000000600082015250565b6000612738601483611d2d565b915061274382612702565b602082019050919050565b600060208201905081810360008301526127678161272b565b9050919050565b600081905092915050565b60008190508160005260206000209050919050565b6000815461279b81612467565b6127a5818661276e565b945060018216600081146127c057600181146127d157612804565b60ff19831686528186019350612804565b6127da85612779565b60005b838110156127fc578154818901526001820191506020810190506127dd565b838801955050505b50505092915050565b600061281882611d22565b612822818561276e565b9350612832818560208601611d3e565b80840191505092915050565b600061284a828561278e565b9150612856828461280d565b91508190509392505050565b7f4e487b7100000000000000000000000000000000000000000000000000000000600052603260045260246000fd5b600061289c82611ddd565b91507fffffffffffffffffffffffffffffffffffffffffffffffffffffffffffffffff8214156128cf576128ce61254b565b5b600182019050919050565b7f4f776e61626c653a206e6577206f776e657220697320746865207a65726f206160008201527f6464726573730000000000000000000000000000000000000000000000000000602082015250565b6000612936602683611d2d565b9150612941826128da565b604082019050919050565b6000602082019050818103600083015261296581612929565b9050919050565b7f4f776e61626c653a2063616c6c6572206973206e6f7420746865206f776e6572600082015250565b60006129a2602083611d2d565b91506129ad8261296c565b602082019050919050565b600060208201905081810360008301526129d181612995565b9050919050565b600081519050919050565b600082825260208201905092915050565b60006129ff826129d8565b612a0981856129e3565b9350612a19818560208601611d3e565b612a2281611d71565b840191505092915050565b6000608082019050612a426000830187611e72565b612a4f6020830186611e72565b612a5c6040830185611f08565b8181036060830152612a6e81846129f4565b905095945050505050565b600081519050612a8881611c93565b92915050565b600060208284031215612aa457612aa3611c5d565b5b6000612ab284828501612a79565b9150509291505056fea264697066735822122060c95eef062a9b180d47a4a4dc026f4e737fbc8eea2f18b87e0f1167fb83ed1364736f6c63430008090033",
  "linkReferences": {},
  "deployedLinkReferences": {}
}